:080000000C9442000C946F0007
:100008000C9400000C9400000C9400000C94000068
:100018000C9400000C9400000C9400000C94000058
:100028000C9400000C9400000C9400000C94000048
:100038000C9400000C9400000C9400000C94000038
:100048000C9400000C9400000C9400001027E803A6
:1000580064000A0001000010000110000100000007
:1000680000000000000000002564000080C00A00B5
:100078000400660002008E0174000000F894EE2768
:10008800ECBBF1E0FBBFEBBFE5BF8DE0A2E0BB2717
:10009800ED938A95E9F780E094E0A0E6ED93019767
:1000A800E9F7E6E7F0E085919591009761F0A59171
:1000B800B59105901590BF01F00105900D9201973B
:1000C800E1F7FB01F0CFEFE5EDBFE4E0EEBFC0E6FE
:1000D800D1E00C945D010A921A92FA926A937A938B
:1000E8008A939A93AA93BA93EA93FA93EFB7EA9307
:1000F800E4E6F0E04F01AAE0B0E00E94DE0498993F
:100108003EC00E946A0479F4E1E0F0E05F010C2C43
:100118000D2829F40E946F0431962F0104C00E9413
:10012800750431963F010E947B0479F4E6E0F0E023
:100138005F010C2C0D2829F40E946F0436962F01BC
:1001480004C00E94750436963F010E94820479F427
:10015800E7E0F0E05F010C2C0D2829F40E946F0401
:1001680037962F0104C00E94750437963F010E94FC
:10017800890419F4E1E0F0E06F01EFE0E5BB99993B
:1001880038C00E946A0479F4E2E0F0E05F010C2CC8
:100198000D2829F40E946F0432962F0104C00E9492
:1001A800750432963F010E947B0479F4E5E0F0E0A3
:1001B8005F010C2C0D2829F40E946F0435962F013D
:1001C80004C00E94750435963F010E94820479F4A8
:1001D800E8E0F0E05F010C2C0D2829F40E946F0480
:1001E80038962F0104C00E94750438963F01EFE04D
:1001F800E5BB9A9941C00E946A0479F4E3E0F0E013
:100208005F010C2C0D2829F40E946F0433962F01EE
:1002180004C00E94750433963F010E947B0479F460
:10022800E4E0F0E05F010C2C0D2829F40E946F0433
:1002380034962F0104C00E94750434963F010E9431
:10024800820479F4E9E0F0E05F010C2C0D2829F430
:100258000E946F0439962F0104C00E9475043996D4
:100268003F010E94890431F4E1E0F0E0E09360018D
:10027800F0936101EFE0E5BBE991EFBFF991E991F6
:10028800B991A9919991899179916991F990199068
:1002980009901895AA93E881E064E7B983E08A9504
:1002A800F1F7369A349BFECF349AE4B1F5B10C9449
:1002B8004F04E8EFEABBE0E0EBBBEFEFE7BBE0E0C1
:1002C800E8BBE0EFE4BBEFE0E5BBE0ECE1BBE4E07A
:1002D800E2BBE0E0E3BFE2BFECBFEFBDEEBDEDBDCA
:1002E800ECBDE7BDE6BDEBBDEABDE9BDE8BDE2BDDD
:1002F800E5BDE4BDE3BDE9BFEBB7E064EBBFE2E019
:10030800E5BFE0E0E4BFE0E4EABFE0E0EAB9E0E846
:10031800E8B9E0E4E7B9E6EAE6B9E0E0E0BFEDB95C
:10032800E6BFA8E00E9423047894A0E0B3DFE0933E
:100338006401F0936501E1E0F0E0EC15FD0539F4A6
:10034800F201A2E0B0E00E94F0040E944505A091ED
:100358006001B0916101119739F4F301A6E0B0E0B2
:100368000E94F0040E944505A2E0B0E00E94350515
:100378002F01A6E0B0E00E9435053F01E6E6F1E076
:100388000E949004F2010E949704EAE7F1E00E94BB
:100398009004F3010E949704E0E0EA93A0E00E9431
:1003A800D303A6E6B1E00E941204E0E0EA93A1E0DC
:1003B8000E94D303AAE7B1E00E941204A09164014D
:1003C800B0916501E2E0F0E00E941505E09362015A
:1003D800F09363010E94A0044A165B0614F4969AEF
:1003E80097980E94A004A615B70514F49698979AB2
:1003F8000E94A0046A167B062CF40E94A004A4158F
:10040800B5050CF002C0969897988FCFFFCFBA9396
:10041800AA931A930A93AA81BB8112960E9428056F
:10042800309759F1AA81BB8114960E9428058F0143
:10043800309761F00230E0E01E0798F0F80131973C
:100448008F01AA81BB811496ED93FC93AA81BB818D
:100458001296ED91FD913196FE93EE933197AC8112
:10046800A083AA81BB810E942805FF232AF0ED9171
:10047800FD913196FE93EE9306C0AA81BB81EFEF02
:10048800FFEFED93FC931981088125960895BA939F
:10049800AA9326970E94660510E0AC85BD85E0E02A
:1004A800F0E0ED93FC93EA89FB893196EA8BFB8BAC
:1004B8003197E4912E2FE03009F415C1E12FE03097
:1004C80039F4253211F411E002C00E94A5040AC1D2
:1004D800E130A9F4253219F40E94A50402C112E002
:1004E80040E000E02D3211F401E0FCC02B3211F4A1
:1004F8004BE2F8C0203211F440E2F4C002C0E2300E
:1005080039F450E013E0203311F40068EBC003C065
:10051800E33009F0E7C0203310F02A3308F007C0B1
:10052800AAE05A9F502DE22FE0535E0FDBC0E22F66
:10053800E33649F40E94AC04E889F989A481AA93B6
:100548000E94B204CEC0E33741F40E94AC040E947A
:10055800B8040E9451041E2F0AC0E03761F40E94BB
:10056800AC040E94B8040E945D041E2F086002605B
:100578000F7730E034C0E43611F0E93611F4046046
:1005880002C0E53731F4E4E5F0E0EE83FF8315E0DF
:100598000CC0E83511F4086003C0E83709F0A1C0C1
:1005A800EEE5F0E0EE83FF8314E002FF14C00E9442
:1005B800AC040E94C204AB85AA233AF4EA85FB8501
:1005C8000E94EC04EA87FB874DE2403011F01F5F80
:1005D80001C00B7F04C00E94AC040E94C20400FD4D
:1005E80011C0151778F407FF08C002FF04C00B7F7D
:1005F800242F115001C020E301C020E20E94A5046D
:100608005150EFCF312F01FF17C03030A1F003FF59
:1006180006C0EE81FF812591EE83FF8305C0AE8180
:10062800BF812D91AE83BF830E94A504503009F08D
:1006380051503150EACF4BC020E3EE81FF810E9438
:100648002C05E887F987EE81FF813296EE83FF83D8
:10065800E885F985AA85BB85AE17BF0750F02F5FDF
:10066800A885B985EA85FB85EA1BFB0BEA87FB872A
:10067800EFCF2A3328F003FF02C0295F01C0295DAC
:1006880004FD1AC0213320F4A885B985119709F40F
:1006980009C0531710F000FF01C013C020E207FF84
:1006A8000BC020E3006102FF07C00B7F4A930E9442
:1006B800B204503009F051500E94A504503009F09E
:1006C80051503150A885B985129708F0B5CF00FF71
:1006D80008C0503031F05150E0E2EA930E94B20471
:1006E800F8CF10E0E0CEAC85BD850E9428050E94B9
:1006F8006D0564960895FF92F82E26970E94680566
:100708000E94CA04309719F4EFEFFFEF23C0DE010F
:1007180016960E94E8048D010E94CA04EE83FF83A6
:10072800E0E0E887E987DE011A960E94E8040E9463
:100738002805FA93EA931A930A93EBE0F2E0FA9306
:10074800EA93DE011A96A3DE9F01AE81BF81E0E045
:10075800EC93F9010E946F052A96FF900895AA93D9
:10076800E8B3EF70AE2FE881E07FEA2BE8BB82E0C8
:100778008A95F1F7C39A82E08A95F1F7C39882E0E7
:100788008A95F1F788C0AA93A881E9DFE881E29504
:10079800E883A881E4DF81E18A95F1F77CC0AA9318
:1007A800E881F0E0E257FE4FE081A981AE0FEBDF70
:1007B800E981E0939201E881E093930122960895FC
:1007C800A2E00E94D104ACE0DEDFA1E00E94D104E7
:1007D800E0E0E0939301E09392010895AA93A88141
:1007E800AA3031F0E0919401A0919201AE1760F027
:1007F800E0E0EA93A0919301AF5FA0939301CFDF6C
:10080800A881AA3009F447C0E0919201EF5FE09314
:100818009201C19AA881B7DFC1983DC0BA93AA9343
:100828001A93A981BA81ED91A983BA831E2FE0306A
:1008380019F0A12FD3DFF5CF188123960895AA9335
:10084800E7B3E06FE7BBBB9AB99ABA9AC398C19865
:10085800C298E881E0939401E058E0939001E88120
:10086800E054E0939101A4E1B0E00E94DE040E940C
:10087800D7040E94D7040E94D704A0E270DF81E267
:100888008A95F1F7A8E27FDFA4E07DDFA5E87BDFAA
:10089800A6E079DF95DF21960895BA93AA93A991E6
:1008A800B991EE27FF276D91662311F03196FBCFA2
:1008B8000895BA93AA93AA27BB27E991F9910590BD
:1008C800002011F01196FBCFFD010895EFE1E5BB83
:1008D800E3B3EF310895F201AAE0B0E00E94FD040D
:1008E8000895F301AAE0B0E00E94FD040895EFE046
:1008F800E5BBEFE2E5BBE3B3EF320895EFE0E5BB1C
:10090800EFE4E5BBE3B3EF340895EFE0E5BBEFE8D0
:10091800E5BBE3B3EF380895FA93EA93E0E7F0E034
:10092800FA93EA9308950E94F0040E94300584E047
:100938000E947F0328960895A0916201B0916301F7
:1009480008952A93AD85BE85EF85F88909950895A0
:10095800E889F9893497E88BF98B0895AD85BE85C8
:10096800EF85F88909950895A889B98914960E9490
:100978002805EE83FF83AE81BF810895A889B989D0
:1009880014960E942805EA87FB870895DE011C96C5
:100998000E94E8040E94280508950E94C703A3E066
:1009A800B0E00C94DE04A0E30E94B30381E28A95D0
:1009B800F1F70895109639F08AEF90E00197F1F772
:1009C800A8951197C9F708950024AF0DB01D089593
:1009D800F195E195F04008956F2F660F660B762F1D
:1009E8000895FA9FF02DEB9FF00DEA9FE02DF10D91
:1009F80008951CD0F6DF0EF4EBDF089500241124CF
:100A080090E1AA0FBB1F001C111C0E1A1F0A18F434
:100A18000E0E1F1E01C0A1609A9599F7FD01D00125
:100A2800089504D0EBDF0EF4D3DF0895E894F7FFC0
:100A380002C0CEDF6894B7FF06C0A095B0951196A6
:100A480000F8039400FA0895ED91FC911197089528
:100A58000590F491E02D08957A936A93FA93EA93B6
:100A68000895119602D0FE2F1197E199FECFFF93BA
:100A7800FFB7F894AEBBBFBBE09AEDB3FFBFFF91E1
:100A8800089507D012960F01FB0103D0F0011297C9
:100A9800089507D01196EF93EF2F03D0EF91119798
:100AA8000895E19B02C0A895FCCF9FB7F894AEBB10
:100AB800BFBBE09A8DB3E81719F0EDBBE29AE19A53
:100AC8009FBF08955A934A933A932A931A930A9385
:100AD80008955D814C813B812A811981088108959F
:00000001FF
